:02000000932843
:10000800F000030E83120313A0000A08A1008A015E
:100018000408A2000B1C35280B100608A50025189B
:10002800182826181C281F288312031326181F288F
:1000380083120313A30A83120313A5182628A618EC
:100048002A282D2883120313A6182D288312031398
:10005800A40A83120313261025182614A610A5181F
:10006800A614831203132208840021088A00200E94
:100078008300F00E700E0900FF01FF017F087F0268
:10008800031C4C28031D60287F087F020318602882
:10009800FF01FF0101307F02031C5828031D5C2863
:1000A8005E307F0203185C28FF0A0319FF0A4E28F6
:1000B800FF0A0319FF0A4228080003107F0CFF00FB
:1000C8007F0CFF000310FF0CFF0CFF01FF017F08EE
:1000D8007F02031C7528031D79287F087F020318F7
:1000E8007928FF0A0319FF0A6B28080083160313EF
:1000F8008501031788018901831203138501FF30E5
:1001080083168600831286010330831696008701C2
:10011800831287018B170B1683160117080001300D
:1001280083120313A3000230A4002610A6107A201D
:100138008312031306088700071487148715071509
:06014800AA3087009C288C
:04400E00D420FF3E7D
:00000001FF
