:10000000F52883120313AA01AB01831203132708F7
:100010002B02031C1128031D2D2826082A02031871
:100020002D2883120313A801A901013083120313A1
:100030002902031C2128031D27285E3028020318EB
:10004000272883120313A80A0319A90A1528831263
:100050000313AA0A0319AB0A052808008312031325
:10006000A6000310260DA9000310A90D0310A90D69
:100070008130A90729089F00AA0164308312031365
:100080002A0203184528AA0A3D28831203139F1445
:10009000831203139F184828831203131E08A80015
:1000A000A70183161E088312A7070318A80A2708AA
:1000B00008000130831603138500031788018901A6
:1000C0008312031385013F30831686008312860155
:1000D00083168701831287018316890183128901A0
:1000E000121092147F30831692000C308312970006
:1000F0000C309D001215803083169F00080083127B
:1001000003132608AB002708AC001030AA00031028
:1001100083120313A80DA90DAB0DAC0D031C96287B
:10012000831612088312A8070318A90A831203135F
:10013000AA0B87282808AB002908AC00AD011030B5
:10014000AA0083120313AB0DAC0DAD0D0318AC2840
:1001500064302D02031CB128643083120313AD02F6
:10016000031483120313A80DA90DAA0BA1282808B4
:1001700095000800831203132608AB002708AC0083
:100180001030AA00031083120313A80DA90DAB0DA4
:10019000AC0D031CD128831612088312A80703187C
:1001A000A90A83120313AA0BC2282808AB00290846
:1001B000AC00AD011030AA0083120313AB0DAC0DDF
:1001C000AD0D0318E72864302D02031CEC286430C1
:1001D00083120313AD02031483120313A80DA90D98
:1001E000AA0BDC2828089B0008005920831203135F
:1001F000071487140715871500302E208312031368
:100200002708A2002808A3002208A7002308A800A6
:10021000A9011030A60083120313A70DA80DA90D84
:100220000318162914302902031C1B2914308312C9
:100230000313A902031483120313A20DA30DA60B2B
:100240000B2932302207A4002208323CA500861E6A
:1002500043290130A0000130A1002508A600A70114
:10026000A61BA7037F20831203132508A600A7015E
:10027000A61BA703BA20F43083120313A600013093
:10028000A70001205929013083120313A00024087C
:10029000A600A701A61BA7037F208312031324082F
:1002A000A600A701A61BA703BA20013083120313DF
:1002B000A10083120313061E7529A001A1012508C0
:1002C000A600A701A61BA703BA20831203132508C3
:1002D000A600A701A61BA7037F20F43083120313F7
:1002E000A6000130A70001208B29013083120313DF
:1002F000A0002408A600A701A61BA7037F20831245
:1003000003132408A600A701A61BA703BA200130E7
:1003100083120313A10083120313861DA729A001D2
:10032000A1012508A600A701A61BA703BA208312D6
:1003300003132508A600A701A61BA7037F20F430FE
:1003400083120313A6000130A7000120BD2901304C
:1003500083120313A0002408A600A701A61BA7036D
:100360007F20831203132408A600A701A61BA7035E
:10037000BA20013083120313A10083120313061D58
:10038000D929A001A1012508A600A701A61BA70342
:10039000BA20831203132508A600A701A61BA703F2
:1003A0007F20F43083120313A6000130A700012040
:1003B000EF29013083120313A0002408A600A7012F
:1003C000A61BA7037F20831203132408A600A701FE
:1003D000A61BA703BA20013083120313A1008312C6
:1003E0000313861EF62907148714FA2983120313B0
:1003F0000710871083120313061E012A071587159D
:10040000052A831203130711871183120313861D14
:100410000C2A07168716102A831203130712871255
:1004200083120313061D162A0717192A83120313B2
:10043000071300302E200130831203132802031CFF
:100440002B2A031D272AF5302702031C2B2A83128F
:0E04500003138717F628831203138713F62869
:04400E00D420FF3E7D
:00000001FF
