:10000000452883120313A0000310200DA300031042
:10001000A30D0310A30D8130A30723089F00A401A3
:10002000643083120313240203181828A40A10282A
:10003000831203139F14831203139F181B28831228
:1000400003131E08A200A10183161E088312A10734
:100050000318A20A21080800013083160313850043
:1000600001300317880089018312031385013F3093
:100070008316860083128601831687018312870107
:10008000831689018312890108002C20831203132F
:10009000861E4D2807148714512883120313071056
:1000A000871083120313061E5828071587155C282E
:1000B000831203130711871183120313861D63280C
:1000C00007168716672883120313071287128312F5
:1000D0000313061D6D2807177028831203130713D7
:1000E000003001200130831203132202031C8228F6
:1000F000031D7E28F5302102031C8228831203137E
:0C01000087174628831203138713462834
:04400E00D420FF3E7D
:00000001FF
